{
  "_format": "hh3-artifact-1",
  "contractName": "MyToken",
  "sourceName": "contracts/MyToken.sol",
  "abi": [
    {
      "inputs": [
        {
          "internalType": "string",
          "name": "_name",
          "type": "string"
        },
        {
          "internalType": "string",
          "name": "_symbol",
          "type": "string"
        },
        {
          "internalType": "uint256",
          "name": "initialSupply",
          "type": "uint256"
        }
      ],
      "stateMutability": "nonpayable",
      "type": "constructor"
    },
    {
      "anonymous": false,
      "inputs": [
        {
          "indexed": true,
          "internalType": "address",
          "name": "from",
          "type": "address"
        },
        {
          "indexed": true,
          "internalType": "address",
          "name": "to",
          "type": "address"
        },
        {
          "indexed": false,
          "internalType": "uint256",
          "name": "amount",
          "type": "uint256"
        }
      ],
      "name": "Transfer",
      "type": "event"
    },
    {
      "inputs": [
        {
          "internalType": "address",
          "name": "",
          "type": "address"
        }
      ],
      "name": "balances",
      "outputs": [
        {
          "internalType": "uint256",
          "name": "",
          "type": "uint256"
        }
      ],
      "stateMutability": "view",
      "type": "function"
    },
    {
      "inputs": [
        {
          "internalType": "address",
          "name": "user",
          "type": "address"
        }
      ],
      "name": "getBalance",
      "outputs": [
        {
          "internalType": "uint256",
          "name": "",
          "type": "uint256"
        }
      ],
      "stateMutability": "view",
      "type": "function"
    },
    {
      "inputs": [],
      "name": "name",
      "outputs": [
        {
          "internalType": "string",
          "name": "",
          "type": "string"
        }
      ],
      "stateMutability": "view",
      "type": "function"
    },
    {
      "inputs": [],
      "name": "symbol",
      "outputs": [
        {
          "internalType": "string",
          "name": "",
          "type": "string"
        }
      ],
      "stateMutability": "view",
      "type": "function"
    },
    {
      "inputs": [
        {
          "internalType": "address",
          "name": "to",
          "type": "address"
        },
        {
          "internalType": "uint256",
          "name": "amount",
          "type": "uint256"
        }
      ],
      "name": "transfer",
      "outputs": [],
      "stateMutability": "nonpayable",
      "type": "function"
    }
  ],
  "bytecode": "0x608060405234801561000f575f5ffd5b506040516105c93803806105c983398101604081905261002e916100fc565b600161003a84826101ed565b50600261004783826101ed565b50335f90815260208190526040902055506102a79050565b634e487b7160e01b5f52604160045260245ffd5b5f82601f830112610082575f5ffd5b81516001600160401b0381111561009b5761009b61005f565b604051601f8201601f19908116603f011681016001600160401b03811182821017156100c9576100c961005f565b6040528181528382016020018510156100e0575f5ffd5b8160208501602083015e5f918101602001919091529392505050565b5f5f5f6060848603121561010e575f5ffd5b83516001600160401b03811115610123575f5ffd5b61012f86828701610073565b602086015190945090506001600160401b0381111561014c575f5ffd5b61015886828701610073565b925050604084015190509250925092565b600181811c9082168061017d57607f821691505b60208210810361019b57634e487b7160e01b5f52602260045260245ffd5b50919050565b601f8211156101e857805f5260205f20601f840160051c810160208510156101c65750805b601f840160051c820191505b818110156101e5575f81556001016101d2565b50505b505050565b81516001600160401b038111156102065761020661005f565b61021a816102148454610169565b846101a1565b6020601f82116001811461024c575f83156102355750848201515b5f19600385901b1c1916600184901b1784556101e5565b5f84815260208120601f198516915b8281101561027b578785015182556020948501946001909201910161025b565b508482101561029857868401515f19600387901b60f8161c191681555b50505050600190811b01905550565b610315806102b45f395ff3fe608060405234801561000f575f5ffd5b5060043610610055575f3560e01c806306fdde031461005957806327e235e31461007757806395d89b41146100a4578063a9059cbb146100ac578063f8b2cb4f146100c1575b5f5ffd5b6100616100e9565b60405161006e91906101ea565b60405180910390f35b61009661008536600461023a565b5f6020819052908152604090205481565b60405190815260200161006e565b610061610175565b6100bf6100ba36600461025a565b610182565b005b6100966100cf36600461023a565b6001600160a01b03165f9081526020819052604090205490565b600180546100f690610282565b80601f016020809104026020016040519081016040528092919081815260200182805461012290610282565b801561016d5780601f106101445761010080835404028352916020019161016d565b820191905f5260205f20905b81548152906001019060200180831161015057829003601f168201915b505050505081565b600280546100f690610282565b5f61018d81836102ba565b335f9081526020819052604090205410156101e55760405162461bcd60e51b8152602060048201526014602482015273496e73756666696369656e742062616c616e636560601b604482015260640160405180910390fd5b505050565b602081525f82518060208401528060208501604085015e5f604082850101526040601f19601f83011684010191505092915050565b80356001600160a01b0381168114610235575f5ffd5b919050565b5f6020828403121561024a575f5ffd5b6102538261021f565b9392505050565b5f5f6040838503121561026b575f5ffd5b6102748361021f565b946020939093013593505050565b600181811c9082168061029657607f821691505b6020821081036102b457634e487b7160e01b5f52602260045260245ffd5b50919050565b808201808211156102d957634e487b7160e01b5f52601160045260245ffd5b9291505056fea26469706673582212201bd12e35fc169ce797d0ae6c60116d5090cdd54083751cdbc6ef1f137375c48864736f6c634300081c0033",
  "linkReferences": {},
  "deployedLinkReferences": {},
  "immutableReferences": {},
  "inputSourceName": "project/contracts/MyToken.sol",
  "buildInfoId": "solc-0_8_28-09eefdbab5aea328e1ccfcdd46300eddedfd8852"
}